:020000040800F2
:1000000038040020010100084D03000845030008E2
:10001000490300080F0200086D07000800000000F7
:10002000000000000000000000000000B90400080B
:100030001302000800000000C1030008CD050008FD
:100040001B0100081B0100081B0100081B01000820
:100050001B0100081B0100081B0100081B01000810
:100060001B0100081B0100081B0100081B01000800
:100070001B0100081B0100081B0100081B010008F0
:100080001B0100081B0100081B0100081B010008E0
:100090001B0100081B0100081B0100081B010008D0
:1000A0001B0100081B0100081B0100081B010008C0
:1000B0001B0100081B0100081B0100081B010008B0
:1000C0001B0100081B0100081B0100081B010008A0
:1000D0001B0100081B0100081B0100081B01000890
:1000E0001B0100081B0100081B010008DFF80CD0F1
:1000F00000F05CF800480047F10B000838040020CD
:100100000648804706480047FEE7FEE7FEE7FEE7B1
:10011000FEE7FEE7FEE7FEE7FEE7FEE7D1050008A3
:10012000ED000008D2B201E000F8012B491EFBD21D
:1001300070470022F6E710B513460A4604461946F2
:10014000FFF7F0FF204610BD2DE9F05F05460020C7
:1001500092469B4688460646814640241BE0284638
:1001600041464746224600F042F853465A46C01AD6
:10017000914110D311461846224600F029F82D1A55
:1001800067EB01084F4622460120002100F020F8CD
:1001900017EB00094E41201EA4F10104DFDC4846A4
:1001A00031462A464346BDE8F09F0000064C074D05
:1001B00006E0E06840F0010394E807009847103437
:1001C000AC42F6D3FFF796FF540D0008740D0008FB
:1001D000202A04DB203A00FA02F100207047914007
:1001E000C2F1200320FA03F3194390407047202AFC
:1001F00004DB203A21FA02F00021704721FA02F3D1
:10020000D040C2F12002914008431946704700BF18
:10021000FEE770472DE9F041024600250026002048
:1002200000230024002791F803C00CF00F0591F87B
:1002300003C00CF0100CBCF1000F03D091F802C009
:100240004CEA050591F800C0BCF1000F31D01468EC
:1002500000202BE04FF0010C0CFA00F3B1F800C0C5
:100260000CEA03069E4220D183004FF00F0C0CFADB
:1002700003F7BC4305FA03FC4CEA040491F803C0FD
:10028000BCF1280F06D14FF0010C0CFA00FCC2F8AB
:1002900014C00AE091F803C0BCF1480F05D14FF03B
:1002A000010C0CFA00FCC2F810C0401C0828D1D385
:1002B0001460B1F800C0BCF1FF0F34DD54680020B9
:1002C0002EE000F1080C4FF0010808FA0CF3B1F829
:1002D00000C00CEA03069E4221D183004FF00F0CB0
:1002E0000CFA03F7BC4305FA03FC4CEA040491F84A
:1002F00003C0BCF1280F05D100F1080C08FA0CF876
:10030000C2F8148091F803C0BCF1480F07D100F186
:10031000080C4FF0010808FA0CF8C2F81080401CD5
:100320000828CED35460BDE8F081024600209368CF
:100330000B400BB1012000E0002070474161704785
:100340000161704700BFFEE700BFFEE77047000095
:1003500070B5002100230F22C47804B3154C246823
:1003600004F4E064C4F5E064210AC1F10403CA4066
:10037000447804FA03F184781440214309010E4CB7
:100380000678A155047804F01F050124AC400578D7
:100390006D11AD0005F1E025C5F8004109E00478D4
:1003A00004F01F050124AC40044D0678761145F891
:1003B000264070BD0CED00E000E400E080E100E0CC
:1003C0007047000029B1064A92690243044B9A61C2
:1003D00004E0034A92698243014B9A61704700002E
:1003E0000010024030B500210022002400232D4DD2
:1003F0006D6805F00C0121B1042905D0082923D12D
:1004000005E0294D056022E0274D05601FE0254DE0
:100410006D6805F47012234D6D6805F48034022573
:1004200005EB92421CB9214D554305600BE01D4D73
:100430006D6805F400351DB11C4D5543056002E0A3
:10044000194D5543056002E0174D056000BF00BF20
:10045000144D6D6805F0F0010909154D6B5C0568D8
:10046000DD4045600F4D6D6805F4E061090A104DEF
:100470006B5C4568DD4085600A4D6D6805F4605130
:10048000C90A0B4D6B5C4568DD40C560054D6D6864
:1004900005F44041890B074D6B5CC568B5FBF3F56E
:1004A000056130BD0010024000127A0000093D00D5
:1004B0002000002030000020704710B500F002F846
:1004C00010BD00000CB5002001900090334800687A
:1004D00040F480303149086000BF3048006800F4C3
:1004E000003000900198401C0190009818B90198C4
:1004F000B0F5A06FF1D12948006800F4003010B1C8
:100500000120009001E0002000900098012843D1D4
:100510002348006840F01000214908600846006840
:1005200020F0030008600846006840F00200086000
:100530001A484068194948600846406848600846BB
:10054000406840F4806048600846406820F47C10B1
:1005500048600846406840F4E81048600846006873
:1005600040F08070086000BF0C48006800F0007028
:100570000028F9D00948406820F003000749486086
:100580000846406840F00200486000BF03484068E9
:1005900000F00C000828F9D10CBD0000001002404A
:1005A00000200240042808D14FF0E021096941F001
:1005B00004014FF0E022116107E04FF0E0210969EA
:1005C00021F004014FF0E0221161704770470000F4
:1005D00010B51348006840F0010011490860084652
:1005E0004068104908400E494860084600680E49B6
:1005F00008400B4908600846006820F48020086025
:100600000846406820F4FE0048604FF41F008860F0
:10061000FFF753FF4FF000600449086010BD000071
:10062000001002400000FFF8FFFFF6FE08ED00E0BA
:1006300021B1828942F40052828104E082894DF620
:10064000FF731A4082817047F0B5034600240026EC
:100650000025002040F66A17B94200D100BF1846B5
:10066000C1F3421401F01F06012707FA06F5012C19
:1006700001D10C3004E0022C01D1103000E0143024
:100680001AB107682F43076002E00768AF430760AD
:10069000F0BD00002DE9F04786B005460E46002467
:1006A000A24600BFA1460027B08900B100BF2F4677
:1006B0002C8A4CF6FF700440F08804432C82AC89ED
:1006C0004EF6F3100440B08831890843718908431D
:1006D0000443AC81AC8A4FF6FF400440B089044328
:1006E000AC8201A8FFF77EFE1F48874202D1DDF8E9
:1006F00010A001E0DDF80CA0A88900F4004040B192
:100700000AEBCA0000EB0A1031684900B0FBF1F8AF
:1007100007E00AEBCA0000EB0A1031688900B0FB61
:10072000F1F86420B8FBF0F004012009642101FB1A
:100730001089A88900F4004040B1322000EBC900C4
:10074000B0FBF1F000F00700044308E0322000EBBA
:1007500009106421B0FBF1F000F00F0004432C817C
:1007600006B0BDE8F08700000038014000BFFEE79A
:100770000FB4054B10B503A9044A029800F018F80D
:1007800010BC5DF814FB00002D0B000804000020D5
:1007900002E008C8121F08C1002AFAD1704770474A
:1007A000002001E001C1121F002AFBD170470000A8
:1007B0002DE9FF4F8DB09B460F460446002606E00C
:1007C00025280BD05A460F999047641C761C207838
:1007D0000028F5D111B03046BDE8F08F0025A846BD
:1007E0000122984900E0054314F8013F203B02FA3A
:1007F00003F00842F7D120782E2817D114F8010F02
:1008000045F004052A280ED06FF02F022078A0F1C1
:10081000300109290AD808EB880102EB410100EBFD
:100820000108641CF2E757F8048B641C20786C28DC
:100830000DD004DC4C2812D06A2811D104E07428B1
:100840000DD07A280CD10AE045F4001507E0617854
:1008500045F48015814202D1641C05F58015641CA5
:100860002278692A45D008DC002AB3D0582A69D0FA
:10087000632A10D0642A08D13BE0702A67D0732A1B
:1008800013D0752A5CD0782A5CD010465A460F994E
:100890009047761CD3E017F8040B8DF80000002079
:1008A0008DF80100E946012003E057F8049B4FF062
:1008B000FF3069074FF0000501D40AE06D1C454583
:1008C0000DDA8542FADB19F805100029F6D106E0A9
:1008D0006D1C8542FCDB19F805100029F8D12E4467
:1008E00004E019F8010B5A460F9990476D1EF8D293
:1008F000A5E00A200021CDE90801C5F30250022835
:100900000DD001CFC117031E71F100030DDA4FF0B6
:10091000000CD0EB0C006CEB01012D2308E0FF1D57
:1009200027F00707F7E80201EDE72B0504D52B2395
:100930008DF8283001233BE0EB0739D02023F7E77F
:100940000A2000E010200021CDE9080107E0102076
:10095000002145F00405CDE908014FF00808C5F372
:10096000025002280FD001CF00214FF0000A2B07C0
:100970001FD5702A0DD0DDE908C38CF0100C5CEA9D
:10098000030C0CD015E0FF1D27F00707F7E8020164
:10099000EBE740228DF828204FF0010A0BE050EAE7
:1009A000010306D030238DF828308DF8292002234A
:1009B0009A46582A04D024A20DF120090B9209E08E
:1009C00026A2F9E7DDE90823FFF7BEFB0B9B9B5C42
:1009D00009F8013D50EA0102F4D1ADEB09002030E5
:1009E0000890680701D44FF001080899884502DD96
:1009F000A8EB010000E000208046002506E00AA8E0
:100A00005A46405D0F9990476D1C761C5545F6DBA4
:100A100004E030205A460F999047761CB8F1000147
:100A2000A8F10108F5DC05E019F8010B5A460F9909
:100A30009047761C0899481E08900029F4DC641C35
:100A4000C5E600000928010030313233343536372D
:100A5000383961626364656600000000303132330A
:100A600034353637383941424344454600000000AA
:100A700010B54FF480710448FFF760FC4FF47A70B2
:100A800000F03EF910BD0000000C014010B586B02A
:100A90000446012144F20400FFF794FC4FF4007077
:100AA000ADF8140003208DF8160018208DF81700FB
:100AB00005A91C48FFF7AEFB4FF48060ADF81400A9
:100AC00004208DF8170005A91648FFF7A3FB252081
:100AD0008DF8000000208DF801008DF80200012043
:100AE0008DF803006846FFF733FC01940020ADF851
:100AF0000800ADF80A00ADF80C00ADF810000C20AD
:100B0000ADF80E0001A90848FFF7C4FD012240F22C
:100B100025510548FFF798FD01210348FFF788FD9F
:100B200006B010BD000801400038014000BF054A72
:100B3000128802F04002002AF9D0C2B2014B1B1DFC
:100B40001A8070470038014070B598B000256021C8
:100B50006846FFF7EEFA00201F49086000BF2CE04E
:100B60001D48006840001C4908604FF400611B48A4
:100B7000FFF7DBFB064605E04FF400611748FFF77F
:100B8000D4FB0646002EF7D04FF480511348FFF7F0
:100B9000CCFB04464DF82540012C04D10E480068DA
:100BA000401C0D49086005E04FF400610B48FFF759
:100BB000BCFB0646012EF7D06D1C182DD0DB064875
:100BC0000268016806A0FFF7D3FD1821684600F00F
:100BD0005FF818B070BD0000080000200008014058
:100BE00064617461203A25782D2D256C640D0A000E
:100BF00072B600F063F84FF4E130FFF747FF00F002
:100C000009F862B604E0FFF79FFF0A2000F078F8C9
:100C1000F9E700001CB501210420FFF7D3FB0420F5
:100C20008DF807004002ADF8040003208DF806009F
:100C300001A91548FFF7EEFA04208DF8070080029D
:100C4000ADF8040003208DF8060001A90E48FFF757
:100C5000E1FA01210820FFF7B5FB4FF48070ADF8F1
:100C6000000010208DF8030003208DF80200694673
:100C70000648FFF7CFFA4FF480710448FFF760FB96
:100C8000FFF7F6FE1CBD000000080140000C01400B
:100C900070B505460E46002406E055F8241005A060
:100CA000FFF766FD601CC4B2B442F6DB02A0FFF79A
:100CB0005FFD70BD256420000D0A000010B56FF0C7
:100CC0000400FFF76FFC0A4800680A49B0FBF1F026
:100CD000094908700846007800EB4001C1EBC010DC
:100CE0004FF6FF7101EAC0000449088010BD000002
:100CF0000C00002000127A000000002002000020FA
:100D0000014601B97047124A12884A434FF0E02366
:100D10005A6100229A611A46126942F001021A6170
:100D200000BF4FF0E022106900F001021AB100F498
:100D30008032002AF5D04FF0E022126922F0010241
:100D40004FF0E0231A6100229A6100BFDAE7000049
:100D500002000020740D0008000000203400000094
:100D600090070008A80D00083400002004040000CB
:100D7000A0070008000000000000000000000000C4
:100D800000A24A0400000000000000000102030469
:100D90000607080900000000010203040102030421
:080DA000060708090204060819
:0400000508000101ED
:00000001FF
